{
  "_format": "hh-sol-artifact-1",
  "contractName": "Escrow",
  "sourceName": "contracts/Escrow.sol",
  "abi": [
    {
      "inputs": [
        {
          "internalType": "address",
          "name": "_freelancer",
          "type": "address"
        }
      ],
      "stateMutability": "payable",
      "type": "constructor"
    },
    {
      "inputs": [],
      "name": "Escrow__EtherTransferFailed",
      "type": "error"
    },
    {
      "inputs": [],
      "name": "Escrow__FundsAlreadyReleased",
      "type": "error"
    },
    {
      "inputs": [],
      "name": "Escrow__InsufficientBalance",
      "type": "error"
    },
    {
      "inputs": [],
      "name": "Escrow__InvalidFreelancerAddress",
      "type": "error"
    },
    {
      "inputs": [],
      "name": "Escrow__NoEtherSent",
      "type": "error"
    },
    {
      "inputs": [],
      "name": "Escrow__NotClient",
      "type": "error"
    },
    {
      "inputs": [],
      "name": "Escrow__NotParticipant",
      "type": "error"
    },
    {
      "anonymous": false,
      "inputs": [
        {
          "indexed": true,
          "internalType": "address",
          "name": "client",
          "type": "address"
        },
        {
          "indexed": true,
          "internalType": "address",
          "name": "freelancer",
          "type": "address"
        },
        {
          "indexed": false,
          "internalType": "uint256",
          "name": "amount",
          "type": "uint256"
        }
      ],
      "name": "FundsDeposited",
      "type": "event"
    },
    {
      "anonymous": false,
      "inputs": [
        {
          "indexed": true,
          "internalType": "address",
          "name": "client",
          "type": "address"
        },
        {
          "indexed": false,
          "internalType": "uint256",
          "name": "amount",
          "type": "uint256"
        }
      ],
      "name": "FundsRefunded",
      "type": "event"
    },
    {
      "anonymous": false,
      "inputs": [
        {
          "indexed": true,
          "internalType": "address",
          "name": "freelancer",
          "type": "address"
        },
        {
          "indexed": false,
          "internalType": "uint256",
          "name": "amount",
          "type": "uint256"
        }
      ],
      "name": "FundsReleased",
      "type": "event"
    },
    {
      "inputs": [],
      "name": "getBalance",
      "outputs": [
        {
          "internalType": "uint256",
          "name": "",
          "type": "uint256"
        }
      ],
      "stateMutability": "view",
      "type": "function"
    },
    {
      "inputs": [],
      "name": "i_amount",
      "outputs": [
        {
          "internalType": "uint256",
          "name": "",
          "type": "uint256"
        }
      ],
      "stateMutability": "view",
      "type": "function"
    },
    {
      "inputs": [],
      "name": "i_client",
      "outputs": [
        {
          "internalType": "address",
          "name": "",
          "type": "address"
        }
      ],
      "stateMutability": "view",
      "type": "function"
    },
    {
      "inputs": [],
      "name": "i_freelancer",
      "outputs": [
        {
          "internalType": "address",
          "name": "",
          "type": "address"
        }
      ],
      "stateMutability": "view",
      "type": "function"
    },
    {
      "inputs": [],
      "name": "refundFunds",
      "outputs": [],
      "stateMutability": "nonpayable",
      "type": "function"
    },
    {
      "inputs": [],
      "name": "releaseFunds",
      "outputs": [],
      "stateMutability": "nonpayable",
      "type": "function"
    },
    {
      "inputs": [],
      "name": "s_isComplete",
      "outputs": [
        {
          "internalType": "bool",
          "name": "",
          "type": "bool"
        }
      ],
      "stateMutability": "view",
      "type": "function"
    }
  ],
  "bytecode": "0x60e0604052604051610b4a380380610b4a8339818101604052810190610025919061021d565b6000340361005f576040517f8995622d00000000000000000000000000000000000000000000000000000000815260040160405180910390fd5b600073ffffffffffffffffffffffffffffffffffffffff168173ffffffffffffffffffffffffffffffffffffffff16036100c5576040517f1f8d813d00000000000000000000000000000000000000000000000000000000815260040160405180910390fd5b3373ffffffffffffffffffffffffffffffffffffffff1660808173ffffffffffffffffffffffffffffffffffffffff16815250508073ffffffffffffffffffffffffffffffffffffffff1660a08173ffffffffffffffffffffffffffffffffffffffff16815250503460c0818152505060008060006101000a81548160ff0219169083151502179055508073ffffffffffffffffffffffffffffffffffffffff163373ffffffffffffffffffffffffffffffffffffffff167ff0d0e99cae184d0187b093b48894117462462379674a6e11d89c3fbb618e96b0346040516101ac9190610263565b60405180910390a35061027e565b600080fd5b600073ffffffffffffffffffffffffffffffffffffffff82169050919050565b60006101ea826101bf565b9050919050565b6101fa816101df565b811461020557600080fd5b50565b600081519050610217816101f1565b92915050565b600060208284031215610233576102326101ba565b5b600061024184828501610208565b91505092915050565b6000819050919050565b61025d8161024a565b82525050565b60006020820190506102786000830184610254565b92915050565b60805160a05160c0516108576102f36000396000818161012e0152818161052f015281816105dc01526106de0152600081816101520152818161020a015281816105a5015261068601526000818161017e015281816101b301528181610332015281816103f3015261046501526108576000f3fe608060405234801561001057600080fd5b506004361061007d5760003560e01c8063313b92041161005b578063313b9204146100dc5780633888e836146100fa57806349569b821461011857806369d89575146101225761007d565b806301619d3d1461008257806311a5ab69146100a057806312065fe0146100be575b600080fd5b61008a61012c565b604051610097919061072e565b60405180910390f35b6100a8610150565b6040516100b5919061078a565b60405180910390f35b6100c6610174565b6040516100d3919061072e565b60405180910390f35b6100e461017c565b6040516100f1919061078a565b60405180910390f35b6101026101a0565b60405161010f91906107c0565b60405180910390f35b6101206101b1565b005b61012a610463565b005b7f000000000000000000000000000000000000000000000000000000000000000081565b7f000000000000000000000000000000000000000000000000000000000000000081565b600047905090565b7f000000000000000000000000000000000000000000000000000000000000000081565b60008054906101000a900460ff1681565b7f000000000000000000000000000000000000000000000000000000000000000073ffffffffffffffffffffffffffffffffffffffff163373ffffffffffffffffffffffffffffffffffffffff161415801561025957507f000000000000000000000000000000000000000000000000000000000000000073ffffffffffffffffffffffffffffffffffffffff163373ffffffffffffffffffffffffffffffffffffffff1614155b15610290576040517f975fdfe500000000000000000000000000000000000000000000000000000000815260040160405180910390fd5b60008054906101000a900460ff16156102d5576040517f3f0096e300000000000000000000000000000000000000000000000000000000815260040160405180910390fd5b6000470361030f576040517f4b71d25500000000000000000000000000000000000000000000000000000000815260040160405180910390fd5b60016000806101000a81548160ff021916908315150217905550600047905060007f000000000000000000000000000000000000000000000000000000000000000073ffffffffffffffffffffffffffffffffffffffff16826040516103749061080c565b60006040518083038185875af1925050503d80600081146103b1576040519150601f19603f3d011682016040523d82523d6000602084013e6103b6565b606091505b50509050806103f1576040517ffddc092300000000000000000000000000000000000000000000000000000000815260040160405180910390fd5b7f000000000000000000000000000000000000000000000000000000000000000073ffffffffffffffffffffffffffffffffffffffff167fbada1a1bf129e41a8af5abe00997bd8a8cb1770cb0cf68314eb4b1d6c427139783604051610457919061072e565b60405180910390a25050565b7f000000000000000000000000000000000000000000000000000000000000000073ffffffffffffffffffffffffffffffffffffffff163373ffffffffffffffffffffffffffffffffffffffff16146104e8576040517f469a509500000000000000000000000000000000000000000000000000000000815260040160405180910390fd5b60008054906101000a900460ff161561052d576040517f3f0096e300000000000000000000000000000000000000000000000000000000815260040160405180910390fd5b7f0000000000000000000000000000000000000000000000000000000000000000471015610587576040517f4b71d25500000000000000000000000000000000000000000000000000000000815260040160405180910390fd5b60016000806101000a81548160ff02191690831515021790555060007f000000000000000000000000000000000000000000000000000000000000000073ffffffffffffffffffffffffffffffffffffffff167f00000000000000000000000000000000000000000000000000000000000000006040516106079061080c565b60006040518083038185875af1925050503d8060008114610644576040519150601f19603f3d011682016040523d82523d6000602084013e610649565b606091505b5050905080610684576040517ffddc092300000000000000000000000000000000000000000000000000000000815260040160405180910390fd5b7f000000000000000000000000000000000000000000000000000000000000000073ffffffffffffffffffffffffffffffffffffffff167f221c08a06b07a64803b3787861a3f276212fcccb51c2e6234077a9b8cb13047a7f000000000000000000000000000000000000000000000000000000000000000060405161070a919061072e565b60405180910390a250565b6000819050919050565b61072881610715565b82525050565b6000602082019050610743600083018461071f565b92915050565b600073ffffffffffffffffffffffffffffffffffffffff82169050919050565b600061077482610749565b9050919050565b61078481610769565b82525050565b600060208201905061079f600083018461077b565b92915050565b60008115159050919050565b6107ba816107a5565b82525050565b60006020820190506107d560008301846107b1565b92915050565b600081905092915050565b50565b60006107f66000836107db565b9150610801826107e6565b600082019050919050565b6000610817826107e9565b915081905091905056fea26469706673582212207f64c17d060a4f274445aafb3b7b9afa44b4b4a8028e48b4e8a070271fd5823064736f6c634300081c0033",
  "linkReferences": {},
  "deployedLinkReferences": {}
}